:1000000077ED00F07DED00F00401C06BC293C2916A
:10001000CEB704EF00F00DEF00F0C06BC291C283C9
:10002000020EC06FE3EDFFF0E3EDFFF0CEA661EF4F
:1000300000F0C283C291080EC06FE3EDFFF0E3ED64
:10004000FFF0CEA661EF00F0C283C291200EC06F18
:10005000E3EDFFF0E3EDFFF0CEA661EF00F0C28329
:10006000C291800EC06FE3EDFFF0E3EDFFF0CEA68E
:1000700061EF00F0C06BC293C281010EC06FE3ED6F
:10008000FFF0CEA66CEF00F0C293C281040EC06FE9
:10009000E3EDFFF0CEA66CEF00F0C293C281100E2C
:1000A000C06FE3EDFFF0CEA66CEF00F0C293C2810B
:1000B000400EC06FE3EDFFF0CEA66CEF00F00DEF49
:1000C00000F0E3EDFFF0E3EDFFF0E3EDFFF0CEB67F
:1000D00061EF00F00DEF00F0E3EDFFF0E3EDFFF076
:1000E000E3EDFFF0CEB661EF00F03AEF00F0000173
:1000F000600EAD6F020EB16F12000401C86B106B81
:10010000CA93CA91209320910401CE6B006BC687DD
:040110000187120051
:020000040001F9
:10FE9E0000EF00F0010E006E0000002E53EFFFF099
:10FEAE0012000000060E006E002E5BEFFFF0120037
:10FEBE000B0E006E0000002E61EFFFF0120000002E
:10FECE001F0E006E002E69EFFFF012000000000002
:10FEDE00300E006E0000002E71EFFFF012003D0E8E
:10FEEE00006E0000002E78EFFFF012000000000000
:10FEFE007B0E006E0000002E81EFFFF0120000005E
:10FF0E000000F80E006E0000002E8AEFFFF01200C7
:10FF1E00050E016E00000000F80E006E0000002EAF
:10FF2E0095EFFFF0012E91EFFFF012000A0E016E19
:10FF3E0000000000F90E006E0000002EA3EFFFF08F
:10FF4E00012E9FEFFFF01200190E016E000000004F
:10FF5E00F90E006E0000002EB1EFFFF0012EADEF96
:10FF6E00FFF01200320E016E00000000F90E006E5E
:10FF7E000000002EBFEFFFF0012EBBEFFFF01200CE
:10FF8E00640E016E00000000F90E006E0000002EDF
:10FF9E00CDEFFFF0012EC9EFFFF01200C80E016E7B
:10FFAE0000000000F90E006E0000002EDBEFFFF0E7
:10FFBE00012ED7EFFFF01200FA0E016EF90E006E51
:10FFCE000000002EE7EFFFF0012EE5EFFFF012002C
:10FFDE00040E026EFA0E016EF90E006E0000002E77
:10FFEE00F5EFFFF0012EF3EFFFF0022EF1EFFFF031
:02FFFE001200EF
:020000040030CA
:10000000EC0D27C79FFFFFFFFFFFFFFFFFFFFFFF75
:10001000FFFFFFFFFFFFFFFFFFFFFFFFFFFFFFFFF0
:03002000FFFFFFE0
:00000001FF
