:100000007EED00F084ED00F0CEA752EF00F009EF96
:1000100000F00401400EC16FEFEDFFF0CEA652EFED
:1000200000F0F90EC16FEFEDFFF0CEA652EF00F039
:10003000240EC16FEFEDFFF0CEA652EF00F0300EB0
:10004000C16FEFEDFFF0CEA652EF00F0190EC16FB9
:10005000EFEDFFF0CEA652EF00F0120EC16FEFED04
:10006000FFF0CEA652EF00F0020EC16FEFEDFFF0F1
:10007000CEA652EF00F0780EC16FEFEDFFF0CEA6E6
:1000800052EF00F0000EC16FEFEDFFF0CEA652EF81
:1000900000F0180EC16FEFEDFFF0CEA652EF00F0AA
:1000A00004EF00F0080EC16FEFEDFFF0CEB609EFE0
:1000B00000F0030EC16FEFEDFFF0CEB609EF00F0D8
:1000C000460EC16FEFEDFFF0CEB609EF00F0210E46
:1000D000C16FEFEDFFF0CEB609EF00F0060EC16F75
:1000E000EFEDFFF0CEB609EF00F00E0EC16FEFEDB1
:1000F000FFF0CEB609EF00F052EF00F00001600E05
:10010000AD6F020EB16F12000401C96B0401CE6B1A
:08011000006BC6870187120095
:020000040001F9
:10FE9E0000EF00F0010E006E0000002E53EFFFF099
:10FEAE0012000000060E006E002E5BEFFFF0120037
:10FEBE000B0E006E0000002E61EFFFF0120000002E
:10FECE001F0E006E002E69EFFFF012000000000002
:10FEDE00300E006E0000002E71EFFFF012003D0E8E
:10FEEE00006E0000002E78EFFFF012000000000000
:10FEFE007B0E006E0000002E81EFFFF0120000005E
:10FF0E000000F80E006E0000002E8AEFFFF01200C7
:10FF1E00050E016E00000000F80E006E0000002EAF
:10FF2E0095EFFFF0012E91EFFFF012000A0E016E19
:10FF3E0000000000F90E006E0000002EA3EFFFF08F
:10FF4E00012E9FEFFFF01200190E016E000000004F
:10FF5E00F90E006E0000002EB1EFFFF0012EADEF96
:10FF6E00FFF01200320E016E00000000F90E006E5E
:10FF7E000000002EBFEFFFF0012EBBEFFFF01200CE
:10FF8E00640E016E00000000F90E006E0000002EDF
:10FF9E00CDEFFFF0012EC9EFFFF01200C80E016E7B
:10FFAE0000000000F90E006E0000002EDBEFFFF0E7
:10FFBE00012ED7EFFFF01200FA0E016EF90E006E51
:10FFCE000000002EE7EFFFF0012EE5EFFFF012002C
:10FFDE00040E026EFA0E016EF90E006E0000002E77
:10FFEE00F5EFFFF0012EF3EFFFF0022EF1EFFFF031
:02FFFE001200EF
:020000040030CA
:10000000EC0D27C79FFFFFFFFFFFFFFFFFFFFFFF75
:10001000FFFFFFFFFFFFFFFFFFFFFFFFFFFFFFFFF0
:03002000FFFFFFE0
:00000001FF
